:020000040800F2
:10000000B8080020290200089F490008A51B000825
:100010009D49000855050008FD4D0008000000003E
:10002000000000000000000000000000094B000874
:100030005705000800000000A14900080B4B00080C
:10004000430200084302000843020008430200087C
:10005000430200084302000843020008430200086C
:10006000430200084302000843020008430200085C
:10007000430200084302000843020008430200084C
:10008000430200084302000821040008430200085C
:10009000430200084302000843020008430200082C
:1000A000430200084302000843020008430200081C
:1000B00043020008B14B0008430200084302000855
:1000C00043020008430200084302000843020008FC
:1000D00043020008430200084302000843020008EC
:1000E00043020008430200084302000843020008DC
:1000F00043020008430200084302000843020008CC
:1001000043020008430200084302000843020008BB
:1001100043020008430200084302000843020008AB
:10012000430200084302000843020008430200089B
:10013000430200084302000843020008430200088B
:10014000430200084302000843020008430200087B
:10015000430200084302000843020008430200086B
:10016000430200084302000843020008430200085B
:100170004302000843020008430200080000000098
:10018000430200084302000800F002F800F03CF8C7
:100190000AA090E8000C82448344AAF10107DA45E2
:1001A00001D100F031F8AFF2090EBAE80F0013F0F8
:1001B000010F18BFFB1A43F0010318479C98000079
:1001C000BC980000103A24BF78C878C1FAD852070A
:1001D00024BF30C830C144BF04680C6070470000C1
:1001E0000023002400250026103A28BF78C1FBD840
:1001F000520728BF30C148BF0B6070471FB505F0DC
:1002000079F81FBD10B510BD00F0CFF81146FFF70B
:10021000F5FF04F003FF00F0EDF803B4FFF7F2FF81
:1002200003BC00F0F5F80000094880470948004782
:10023000FEE7FEE7FEE7FEE7FEE7FEE7FEE7FEE796
:10024000FEE7FEE704480549054A064B70470000F3
:10025000A14B000889010008B8020020B80800205E
:10026000B8040020B804002053EA020C00F06980B2
:100270002DE9F04B4FF00006002B1FBFB3FA83F5BA
:1002800003FA05F424FA05F65E4012BF1643B2FAEB
:1002900082F502FA05F4C5F120051EBF22FA05FC1D
:1002A00044EA0C04203556EA044C4FEA144418BFC3
:1002B000641C4FF000084FF00009904271EB030CF2
:1002C00039D3002919BFB1FA81F701FA07F6B0FA5C
:1002D00080F700FA07F6C7F120071EBF20FA07FCD7
:1002E00046EA0C062037B6FBF4FCA7EB0507103FE7
:1002F00007F01F0BCBF120060CFA0BFB2CFA06F6CD
:1003000044BFB3460026202FA4BF5E464FF0000B2B
:100310005BEA060C08BF4FF0010B19EB0B09ABFBB6
:10032000027C48EB0608C01B06FB02CC0BFB03CC8F
:1003300071EB0C01C1E70B46024641464846BDE859
:10034000F08B13B54FF000004FF00001AFF30080C9
:10035000BDE81C4070474FF0000200B513469446BC
:100360009646203922BFA0E80C50A0E80C50B1F10D
:100370002001BFF4F7AF090728BFA0E80C5048BF21
:100380000CC05DF804EB890028BF40F8042B08BFBF
:10039000704748BF20F8022B11F0804F18BF00F8BB
:1003A000012B7047704770477047754600F02CF876
:1003B000AE4605006946534620F00700854618B052
:1003C00020B5FFF73FFFBDE820404FF000064FF09B
:1003D00000074FF000084FF0000B21F00701AC467A
:1003E000ACE8C009ACE8C009ACE8C009ACE8C00999
:1003F0008D46704710B50446AFF300802046BDE837
:100400001040FFF70ABF0000004870475802002064
:1004100001491820ABBEFEE726000200704700002D
:10042000014800F0C9B900002C000020464910B571
:100430004A6822F440324A604A6843681A434A6074
:1004400001684A6822F480724A6001684A68036958
:1004500042EA03224A6001684A6822F040724A6018
:1004600001684A6883681A434A6001688A6822F40E
:1004700000628A6001688A68C3681A438A60816A78
:100480006FF07062D14201688A6822F070628A60FF
:1004900001688A680CD0836A1A438A6001688A6896
:1004A00022F040528A6001688A68C36A1A4301E0F8
:1004B00022F040528A6001688A6822F002028A6053
:1004C00001688A68037E42EA43028A6090F820103D
:1004D000002901684A680FD042F400624A6001684E
:1004E0004A6822F460424A6001684A68174C436ACD
:1004F00004EB43331A4301E022F400624A600168CE
:10050000CA6A22F47002CA620168CA6A838B104CFC
:1005100004EB03531A43CA6201688A6822F400722A
:100520008A6001688A6890F8303042EA43228A6023
:1005300001688A6822F480628A6001688A6840697A
:1005400042EA8020886010BD0023014000E0FFFFE8
:100550000000F0FFFEE7704772B6FEE770B5B3F536
:10056000804F05D06FF0704140F82210002070BD20
:1005700050F82240084B8E891C40D1E9003543EAEF
:1005800005138D6889692D0245EA06452B430B4307
:10059000234340F82230E9E70000F0CFF0B50C68C3
:1005A00050F82430114A1340D1E90125D1E90367FD
:1005B0002A433E4332434E6932438E693243CE6909
:1005C00032430E6A32434E6A32438E6A3243CE6AF7
:1005D0003243CE6B096B32430A431A43082D01D1D3
:1005E00042F0400240F824200020F0BD8000F0FFDF
:1005F00030B500EB820250688D8900F04043D1E9AC
:10060000000440EA04108C68240244EA05442043B4
:100610000C8A074D05EB045420430C7D6D0105EB5E
:10062000046489692043084318435060002030BDAA
:100630000000F0FF002A07D04FF0D0435B5C491C5C
:1006400000F8013B521EF7D17047000010B5002A98
:1006500008D000BF4FF0D04310F8014B5C54491C48
:10066000521EF7D110BD704778B50024009490F861
:100670003C20012A19D0012280F83C200A68072377
:100680000568092A13D9EE680A3A02EB4202934040
:100690009E43EE600B788A680A3B03EB43039A4063
:1006A0000368DD682A43DA6010E0022078BD2E6915
:1006B00002EB420293409E432E610B788A6803EB63
:1006C00043039A4003681D692A431A614A681F233D
:1006D000072A13D205686E6B521E02EB820293400A
:1006E0009E436E630B790A885B1E92B203EB830311
:1006F0009A4003685D6B2A435A6327E005680D2A18
:1007000012D22E6BD21F02EB820293409E432E63C5
:100710000B790A88DB1F92B203EB83039A400368CC
:100720001D6B2A431A6311E0EE6A0D3A02EB820256
:1007300093409E43EE620B790A880D3B92B203EB25
:1007400083039A400368DD6A2A43DA62164B056820
:10075000144A9D4206D10D68122D03D1556845F407
:100760008005556005689D4218D10B68102B01D09B
:10077000112B13D1536843F4000353600968102907
:100780000CD10A490A4A0968B1FBF2F101EB810177
:10079000490000E0491E00910029FBD180F83C404F
:1007A000002078BD002301400020014018000020F7
:1007B00040420F007047704770B5044600680168FA
:1007C0004268C1F34001C2F3401251B34AB3216CF5
:1007D000C90603D4216C41F400712164816811F0D1
:1007E000405F17D1217EA9B9C16A11F4700F02D000
:1007F000816849050ED4416821F020014160206CD8
:1008000020F480702064206CC00403D4206C40F07D
:10081000010020642046FFF7CDFF21686FF0120031
:100820000860206801684268C1F38001C2F3C01209
:1008300089B382B3216CC90603D4216C41F4005101
:100840002164816811F4401F1ED1816B11F4401F97
:1008500002D08168490517D44168490514D48168DC
:1008600011F0405F10D1217E71B9416821F0800103
:100870004160206C20F480502064206CC00503D4BB
:10088000206C40F0010020642046FFF7ECFE216858
:100890006FF00C00086020680168426811F0010FD9
:1008A000C2F380120ED06AB10068C0070AD0206C73
:1008B00040F480302064204600F046F821686FF054
:1008C00001000860206801684268C1F34011C2F36A
:1008D000806200290DD0002A0BD0616C41F002012A
:1008E00061646FF0200505602046FFF764FF206813
:1008F000056070BD70B504004FF0000503D0206C9A
:10090000002610B107E0012070BD204600F01EF85F
:10091000666484F83C60206CC00610D4206C20F41F
:10092000885040F0020020642046FFF77FFD666497
:10093000206C20F0020040F00100206400E001255E
:1009400084F83C60284670BD7047000010B586B042
:10095000044614216846FFF7FEFC154920688842CA
:1009600024D114480021026842F4807202600068B9
:1009700000F4807005900F481438026842F00102BC
:100980000260006800F00100059001200090032043
:10099000CDE901016946084800F076F800221146C9
:1009A000122000F0E5F9122000F0D4F906B010BDD5
:1009B00000200140443802400000024070B5044667
:1009C00000F068F90546601C02D004480078044431
:1009D00000F060F9401BA042FAD370BD0C0000206B
:1009E000F0B587B014216846FFF7B5FC20480168D0
:1009F00000293AD1012101601E480024016841F01C
:100A0000010101600068022500F0010005904FF22D
:100A10003F00CDE9000502AA03260C2782E8D0009A
:100A20006946154800F030F841F23F40CDE9000535
:100A300002AA694682E8D000104800F025F84FF677
:100A40008370CDE9000502AA694682E8D0000C480F
:100A500000F01AF84FF63370CDE9000502AA694696
:100A600082E8D000074800F00FF807B0F0BD0000A2
:100A700004000020383802400014024000180240F0
:100A800000100240000C02402DE9F84FDFF8BCA135
:100A9000002201250AF1040B03264FF00F090BF188
:100AA000040E00BF0B6805FA02F42340A34270D184
:100AB0000F7907F00307012F01D0022F16D18768A5
:100AC0004FEA420806FA08FC27EA0C07D1F80CC0E6
:100AD0000CFA08FC4CEA070CC0F808C04768A743AA
:100AE0000C79C4F3001494403C4344600C79E44313
:100AF000A4070AD0C4684FEA420C06FA0CF7BC43BC
:100B00008F6807FA0CF72743C7600C7904F00304D9
:100B1000022C12D1D40800EB840CDCF820405707DB
:100B2000FF0E09FA07F824EA0804D1F8108008FA41
:100B300007F848EA0408CCF8208004684FEA420C21
:100B400006FA0CF7BC430F7907F0030707FA0CF716
:100B5000274307604C6814F4403F70D03C4C276832
:100B600047F480472760246822F0030704F4804498
:100B70000094384C07EB040CDCF8084897074FEA60
:100B8000177809FA08F7BC43334FB84202D100275F
:100B900024E054E0314FB84201D101271EE0304F2C
:100BA000B84201D1022719E02E4FB84201D10327E4
:100BB00014E02D4FB84201D104270FE02B4FB8426B
:100BC00001D105270AE02A4FB84201D1062705E0E6
:100BD000284FB84201D1072700E0082707FA08F795
:100BE0002743CCF80878DAF800405746D1F804C01B
:100BF0009C435FEACC3C00D51C433C60DBF80040E2
:100C00005F46D1F804C09C435FEA8C3C00D51C438E
:100C10003C60DEF800407746D1F804C09C435FEAB0
:100C2000CC2C00D51C433C60084F0C373C68D1F8F5
:100C300004C09C435FEA8C2C00D51C433C60521CD2
:100C4000102AFFF42FAFBDE8F88F0000003C0140F0
:100C500044380240003001400000024000040240DD
:100C600000080240000C0240001002400014024044
:100C700000180240001C0240426921EA02030A40B7
:100C800043EA0241816170470AB1816170470904FA
:100C9000FBE7000001488068704700000C0000205E
:100CA0000248816802781144816070470C0000207E
:100CB0000B4810B5016841F400710160016841F40E
:100CC00080610160016841F480710160032000F0DF
:100CD0006FF80F2000F006F800F024F8002010BD97
:100CE000003C024070B50D4D04464FF47A712878EF
:100CF000B1FBF0F00A490968B1FBF0F000F0BAFC72
:100D000048B9102C07D200222146501E00F030F8BE
:100D100000206C6070BD012070BD00000C00002040
:100D2000180000200A4808B5016841F480410160BC
:100D3000006800F4804000900548001F016841F001
:100D400080510160006800F08050009008BD0000F4
:100D500044380240002809DB00F01F0201219140C5
:100D60004009800000F1E020C0F800117047000049
:100D7000F0B40E4B1B680C46C3F30223C3F1070506
:100D8000042D00D90425191D072901D2002300E0F4
:100D9000DB1E012606FA05F1491E214099409E40BE
:100DA000761E16403143F0BC04F0A6B80CED00E00E
:100DB000064900F0070208684FF6FF03184040EAB2
:100DC0000220034A10430860704700000CED00E069
:100DD0000000FA052DE9F0470E46050065D0DFF862
:100DE0001481D8F80000F7B200F00700B04207D233
:100DF00088F80070D8F8000000F00700B04254D125
:100E000028683D4C810712D5400703D5206840F47F
:100E1000E05020602878000703D5206840F4604047
:100E200020602068A96820F0F0000843206028783E
:100E3000C0072DD0304968680839012812D002282F
:100E400013D0032811D00968890700292DDA2168F9
:100E500021F0030101432160FFF71CFF814641F2AD
:100E6000883A0EE009688903EFE709688901ECE731
:100E7000FFF710FFA0EB0901514502D90320BDE89F
:100E8000F0872068696800F00C00B0EB810FEFD1AB
:100E9000D8F80010404601F00701B14207D90770A9
:100EA000006800F00700B04201D00120E7E7287891
:100EB000400705D52068E96820F4E0500843206029
:100EC0002878000706D52068296920F4604040EAA8
:100ED000C100206000F038F82168084AC1F303110E
:100EE000515CC8400649086006480068FFF7FAFEF2
:100EF0000020C4E7003C024008380240FE520008CF
:100F00001800002010000020044805490068096806
:100F1000044AC1F38221515CC84070471800002088
:100F2000083802400E530008044805490068096863
:100F3000044AC1F34231515CC84070471800002098
:100F4000083802400E530008154810B5006810F02C
:100F50000C02144813D04110042A0FD0082A0ED1D5
:100F60000F4C241F2268236802F03F025B0207D562
:100F70002068C0F38810A0FB010106E0084610BD00
:100F80002168C1F38811A1FB00010023FFF76CF970
:100F90002168C1F30141491C4900B0FBF1F010BDCB
:100FA000083802400024F4002DE9F84F04006ED008
:100FB0002078DFF84C93C007A9F104054AD009F165
:100FC00004000168C1F38101012908D00068C0F361
:100FD000810002280AD1D9F80000400206D528680D
:100FE000800337D560680028E1D033E06068B0F551
:100FF000803F10D0B0F5A02F286810D020F48030AA
:101000002860286820F4802028606068A8B1FFF775
:1010100041FE06460DE0286840F48030F4E740F4D5
:1010200080202860F7E700BFFFF734FE801B6428AC
:1010300073D828688003F7D50CE0FFF72BFE06462F
:1010400005E000BFFFF726FE801B6428F0D8286863
:101050008003F7D42078DFF8AC8280074FF0000AD5
:101060003ED5A748001D016811F00C0F08D000689C
:10107000C0F3810002280BD1D9F80000400207D448
:101080002868800716D5E068012800D112E033E116
:10109000E068B8B10120C8F80000FFF7FBFD064684
:1010A00005E000BFFFF7F6FD801B0228C0D82868C6
:1010B0008007F7D52868216920F0F80040EAC100D0
:1010C00028600DE0C8F800A0FFF7E4FD064604E044
:1010D000FFF7E0FD801B02281FD828688007F7D49F
:1010E0002078000722D5864F87486169703771B133
:1010F00001210160FFF7CEFD064604E0FFF7CAFDBF
:10110000801B022809D838688007F7D50EE0C0F8A0
:1011100000A0FFF7BFFD064605E082E0FFF7BAFD3D
:10112000801B02287DD838688007F7D420784007D4
:1011300068D5DFF8CCB100270BF13C0BDBF80000E1
:10114000C0000BD4DBF8001041F08051CBF8001048
:10115000DBF80000012700F0805000906B4E3068F3
:10116000C00510D4306840F480703060FFF792FD05
:10117000009005E0FFF78EFD0099401A022850D834
:101180003068C005F6D55E4EA0686C3601280FD0D9
:101190000528306810D020F001003060306820F061
:1011A00004003060A068B8B1FFF774FD00900FE054
:1011B000306840F00100F4E740F004003060F7E7E9
:1011C000FFF768FD0099411A41F28830814266D8E4
:1011D00030688007F4D50EE0FFF75CFD009007E073
:1011E000FFF758FD0099411A41F28830814256D8E4
:1011F00030688007F4D42FB1DBF8001021F0805163
:10120000CBF80010A069C8B33D49091D0968C1F3B6
:10121000810102294AD00228504607D0C8F8600050
:1012200000E03CE0FFF736FD04463BE04746C8F8E7
:101230006000FFF72FFD064605E000BFFFF72AFD1F
:10124000801B02282BD828688001F7D4D4E9070135
:101250000843A16A2E4A490802EB0141626A41EA49
:101260008211084394F82C1040EA0161C9F800107B
:1012700001203866FFF70EFD044606E03EE000BFA1
:10128000FFF708FD001B022809D828688001F7D560
:1012900034E000BFFFF7FEFC001B022802D9032048
:1012A000BDE8F88F28688001F4D427E00128F7D042
:1012B000D9F80000E26900F4800191421CD1226A51
:1012C00000F03F01914217D147F6C071626A0140B8
:1012D000B1EB821F10D1A26A4FF0FF3300F440310E
:1012E00003EB5202B1EB024F06D194F82C1000F040
:1012F0007060B0EB016F01D00120D1E70020CFE793
:101300000438024000004742800E4742007000400F
:101310000000FFFF70B5040009D0606A002540B1ED
:1013200025616561A56294F8510040B10CE001208F
:1013300070BD6068B0F5827FF4D0E561F2E784F8B3
:101340005050204600F044F8022084F851002068F4
:10135000016821F040010160A088218900F48270B9
:1013600001F404410843A18901F400610843217C90
:1013700001F002010843217D01F001010843218BA6
:1013800001F400710843217F01F03801084394F80B
:10139000201001F080010843218D01F40051084321
:1013A00021680860A069042101EA104094F8241023
:1013B00001F010010843216848602068C16921F4E8
:1013C0000061C1616565012084F85100002070BD95
:1013D00010B586B0044614216846FEF7BCFF1349D9
:1013E0002068884220D112480021026842F48052CD
:1013F0000260006800F4805005900D4814380268BF
:1014000042F002020260006800F0020005903820FD
:1014100000900220CDE901010320039005200490F3
:1014200069460448FFF730FB06B010BD00300140AC
:1014300044380240000402402DE9F84F044690F879
:10144000500000270A9E1D4692468B464FF0010928
:1014500001280ED0012084F85000FFF71BFC8046C5
:1014600094F85100616801280CD0B1F5827F07D152
:1014700002E00220BDE8F88FA16809B9042801D074
:101480000227C2E0BBF1000F27D0BAF1000F24D031
:101490001DB394F85100042802D0052084F85100AF
:1014A00000206065C4F838A0E587A587C4F830B08F
:1014B000E586A5862064606420680168490603D437
:1014C000016841F040010160E068B0F5006F6068BC
:1014D00005D0E8B3012D46D07FE0012795E008B1A3
:1014E000012D39D1206B21680088C860206B801CD9
:1014F0002063E08E401EE0862EE020688168890728
:101500000FD5E18E69B1B9F1010F0AD1216B0988BC
:10151000C160206B801C2063E08E401EE0864FF08F
:10152000000920688168C9070CD0E18F51B1C068FB
:10153000A16B0880A06B801CA063E08F401EE08739
:101540004FF00109FFF7A6FBA0EB0800B04200E056
:1015500009E001D3701C50D1E08E0028CDD1E08F7E
:101560000028CAD13FE0206B216800780873206B07
:10157000401C2063E08E401EE0862EE020688168DB
:1015800089070FD5E18E69B1B9F1010F0AD1216B3D
:1015900009780173206B401C2063E08E401EE086BA
:1015A0004FF0000920688168C9070CD0E18F51B164
:1015B000C068A16B0870A06B401CA063E08F401E48
:1015C000E0874FF00109FFF765FBA0EB0800B04290
:1015D00002D3701C01D010E07EB1E08E0028CDD186
:1015E000E08F0028CAD142463146204603F004FA73
:1015F00028B101272020606507E0032705E0A068E7
:1016000018B92068C16880680090012084F85100F2
:10161000002084F8500038462CE770B515460E4679
:10162000040003D094F8490010B107E0012070BD18
:10163000002084F84800204600F01AF804F1080160
:101640002068FEF7ABFF3146A2682068FEF7D0FFA6
:10165000D4E901022946236BFEF780FFA1682068C8
:1016600050F8212042F0010240F82120002070BDF6
:10167000FFF7B6B910B5401EB0F1807F01D301204D
:1016800010BD4FF0E02460610F21601703F034FCBF
:101690000020A06107202061002010BD7047704726
:1016A00070B590F83C20012A32D0012480F83C40EB
:1016B000022280F83D2003685A689D6822F0700677
:1016C0000A6832435A60134B02689A4214D0B2F14E
:1016D000804F11D0104B9A420ED0104B9A420BD033
:1016E0000F4B9A4208D00F4B9A4205D00E4B9A42AC
:1016F00002D00E4B9A4204D1496825F08003194369
:10170000916080F83D40002180F83C10084670BD93
:10171000022070BD000001400004004000080040AD
:10172000000C00400004014000400140001800404F
:1017300010B5040003D094F83D0010B107E001207B
:1017400010BD002084F83C00204600F01FF8022065
:1017500084F83D00211D206803F030FA012084F850
:10176000460084F83E0084F83F0084F8400084F886
:10177000410084F8420084F8430084F8440084F86F
:10178000450084F83D00002010BD000008B5006849
:101790000B49884212D10B48016841F002010160F7
:1017A0000068002200F00200009001211D20FFF7D8
:1017B000DFFABDE808401D20FFF7CCBA08BD0000E5
:1017C000000400404038024090F83D10012901D04B
:1017D00001207047022180F83D100168CA6842F07C
:1017E0000102CA6000681149884214D0B0F1804FEC
:1017F00011D00F4988420ED00E4988420BD00E49B5
:10180000884208D00D49884205D00D49884202D04F
:101810000C49884204D1816801F00701062903D0F0
:10182000016841F0010101600020704700000140A3
:101830000004004000080040000C0040000401408B
:10184000004001400018004070B5044690F83C008C
:101850000025012817D0012684F83C60022084F876
:101860003D002068826822F0770222F47F42826085
:101870000868502838D00DDC20284FD005DC90B304
:10188000102811D14AE0022070BD302846D04028EF
:101890000AD13BE060282FD070280DD0B0F5805FD2
:1018A00003D0B0F5005F12D0012584F83D60002020
:1018B00084F83C00284670BDCB68D1E9012120683E
:1018C00003F0E0F92068816841F0770109E0CB6816
:1018D000D1E90121206803F0D5F92068816841F43D
:1018E00080418160E1E719E0CA684968206803F037
:1018F000DBF95021206806E0CA684968206803F0D7
:10190000E4F96021206803F0C7F9CEE7CA684968A6
:10191000206803F0C9F940212068F4E722680146F5
:101920001046F0E7704770B50446006801694FF053
:101930000005C943890715D4C168C943890711D473
:10194000E91E016101202077206880698007204618
:1019500002D0FFF7E7FF04E000F098F8204600F01F
:1019600096F8257720680169C943490717D4C168EB
:10197000C943490713D46FF00401016102202077A5
:101980002068806910F4407F204602D0FFF7CAFF2C
:1019900004E000F07BF8204600F079F82577206815
:1019A0000169C943090716D4C168C943090712D49C
:1019B0006FF008010161042020772068C06980076A
:1019C000204602D0FFF7AEFF04E000F05FF82046AB
:1019D00000F05DF8257720680169C943C90617D46E
:1019E000C168C943C90613D46FF010010161082012
:1019F00020772068C06910F4407F204602D0FFF7AE
:101A000091FF04E000F042F8204600F040F825770E
:101A100020680169C943C90708D1C168C943C9071A
:101A200004D1891E0161204600F032F82068016966
:101A3000C943090609D4C168C943090605D46FF032
:101A4000800101612046FFF729FE20680169C94332
:101A5000490609D4C168C943490605D46FF040015D
:101A60000161204600F022F820680169C943890617
:101A70000BD4C168C943890607D46FF02001016106
:101A80002046BDE87040FFF70ABE70BD7047704742
:101A90000449884204D14FF400710348FFF7ECB8C1
:101AA000704700006C01002000140240704770B5C0
:101AB000040004D094F83D00002510B106E0012098
:101AC00070BD84F83C50204600F022F8242084F8B1
:101AD0003D002068C16821F40051C160204603F038
:101AE00007F92068016921F490410161206841698A
:101AF00021F02A0141612068C16841F40051C160B0
:101B00002564202084F83D0084F83E00002070BD4C
:101B1000F0B587B0044614216846FEF71CFC1D4949
:101B20002068884233D11C480024016841F010012C
:101B30000160006800F01000059017481438016833
:101B400041F001010160016801F0010105910168A6
:101B500041F0020101600068022500F002000590DA
:101B60004FF40070CDE9000502AA0326072782E89A
:101B7000D00069460948FEF787FF8020CDE90005BF
:101B800002AA694682E8D0000548FEF77DFF07B04B
:101B9000F0BD000000100140443802400000024047
:101BA00000040240FEE7000070B50B490646002421
:101BB00008884D8821464543204602F0E3FB02F0A9
:101BC0005BFDB0B24FF0D84103E000BFA1F8800048
:101BD000641CAC42FAD370BD480200200C488088D7
:101BE000A0F5134141390FD0A0F5A64110390BD013
:101BF000A0F5C851633907D0A0F5AA41103905D125
:101C00004FF4245002F02BBD2920FBE77047000061
:101C1000480200202DE9F04F33492C240A468871F0
:101C20002A2592882B2645F2105B4FF4305E4FF444
:101C300048774FF0F00949F2413A4FF4A07845F265
:101C4000103C4FF4F07358B1A1F80080A1F8029055
:101C5000524501D0624529D10C814D818E8139E0F8
:101C6000A1F80090A1F80280524501D0624508D148
:101C70000C814D818E81624531D1A1F800804B806D
:101C80002DE05A4508D1A1F808E04FF428504881CA
:101C90004FF42C50888106E0A2F5C85063381ED15D
:101CA0000C814E818D810B804F8018E05A4508D100
:101CB000A1F808E04FF4285048814FF42C50888157
:101CC00006E0A2F5C850633804D10C814D818E81A5
:101CD0000F804B80624502D10B80A1F80280BDE8E5
:101CE000F04F002002F072BA480200202DE9F041C6
:101CF000354C90460D460246060AA18820462F0A1A
:101D00004089A1F51343413B0CD0A1F5A643103BFC
:101D100008D0A1F5AA43103B10D0A1F5C853633BEE
:101D200025D048E002F09BFC304602F08CFCD0B29B
:101D300002F089FCA08902F092FC36E002F08FFCF0
:101D4000304602F080FC6089401C80B202F087FCC3
:101D5000D0B202F078FCA08902F081FC384602F093
:101D600072FCA089401C80B202F079FC20E0A179CD
:101D700019B92188891A491E8AB202F070FC160A24
:101D8000304602F060FCD0B202F05DFC304602F05A
:101D90005AFCD0B202F057FCA08902F060FC384631
:101DA00002F051FCE8B202F04EFC384602F04BFC67
:101DB000E8B202F048FC4FF0D840218920F87E1F9D
:101DC000A0F80280BDE8F081480200202DE9F04F24
:101DD000FF4895B00024016841F0020101600068ED
:101DE0004FF0010A00F0020007904FF40040CDE9E7
:101DF000100A0320CDE912A010A9F648FEF744FE10
:101E0000F548F6494FF02049C0E900910621C0E9A4
:101E100002141021C0E9044184610902C461C0E9CF
:101E200009418900C0E90B4189014463C0E90E41C1
:101E30000F20CDE909043C200B900F940920CDE937
:101E400000040820029003946A4609A90694E24817
:101E5000FFF7E3FB322003F05FF8D32002F0FFFB33
:101E600002F082F9DC4C5034A08002F07DF9A080B1
:101E700002F07AF94FF6FF7B0BEA0020A08002F017
:101E800073F9A18849F241360843A08045F2103722
:101E900045F2105541F66318B04247D0D42002F005
:101EA000DEFB02F061F9A08002F05EF9A08002F092
:101EB0005BF90BEA00205A46A08002F055F9A18890
:101EC0000843A080B84231D04FF45A4002F0C7FB1B
:101ED00002F04AF9A0804FF45B4002F0C0FB02F030
:101EE00043F902EA0020A0804FF45C4002F0B7FB07
:101EF00002F03AF9A1880843A080B0F5004F7DD0E8
:101F0000A84213D0A12002F0AAFB02F02DF9A08074
:101F100002F02AF902EA0020A08002F025F9A18847
:101F20000843A0F5AE41A080613968D080B2B042CC
:101F300066D1CF2002F093FB002002F084FBC12089
:101F400002F081FB302002F07EFBED2002F087FBE7
:101F5000642002F078FB032002F075FB122002F0EF
:101F600072FB812002F06FFBE82002F078FB8520F5
:101F700002F069FB102002F066FB7A2002F063FB9E
:101F8000CB2002F06CFB392002F05DFB2C2002F02C
:101F90005AFB002002F057FB342002F054FB0220D1
:101FA00002F051FBF72002F05AFB202002F04BFB1D
:101FB000EA2002F054FB002002F045FB002002F072
:101FC00042FBC02002F04BFB1B2002F03CFBC12077
:101FD00002F045FB012002F036FBC52002F03FFB7A
:101FE000302002F030FB302002F02DFBC72002F041
:101FF00036FBB72002F027FB362002E0B5E0B0E068
:10200000B5E002F02CFB482002F01DFB3A2002F064
:1020100026FB552002F017FBB12002F020FB002028
:1020200002F011FB1A2002F00EFBB62002F017FBA3
:102030000A2002F008FBA22002F005FBF22002F0C9
:102040000EFB002002F0FFFA262002F008FB012020
:1020500002F0F9FAE02002F002FB0F2002F0F3FA9E
:102060002A2002F0F0FA282002F0EDFA082002F00F
:10207000EAFA0E2002F0E7FA082002F0E4FA54200F
:1020800002F0E1FAA92002F0DEFA432002F0DBFAC6
:102090000A2002F0D8FA0F2002F0D5FA002002F050
:1020A000D2FA002002F0CFFA002002F0CCFA002091
:1020B00002F0C9FAE12002F0D2FA002002F0C3FADD
:1020C000152002F0C0FA172002F0BDFA072002F036
:1020D000BAFA112002F0B7FA062002F0B4FA2B2067
:1020E00002F0B1FA562002F0AEFA3C2002F0ABFA50
:1020F000052002F0A8FA102002F0A5FA0F2002F045
:10210000A2FA3F2002F09FFA3F2002F09CFA0F2033
:1021100002F099FA2B2002F0A2FA002002F093FAC2
:10212000002002F090FA012002F08DFA3F2002F028
:102130008AFA2A2002F093FA002002F084FA0020A2
:1021400002F081FA002002F07EFAEF2002F07BFA22
:10215000112002F084FA782002F0DEFE292001F03E
:102160000FBFA4F8048001F010BFA580FEE3B842C1
:102170007ED1ED2002F073FA012002F064FAFE2015
:1021800002F061FAEE2002F06AFADE2002F05BFA59
:10219000212002F058FAF12002F061FA012002F049
:1021A00052FADF2002F05BFA102002F04CFAC42051
:1021B00002F055FA8F2002F046FAC62002F04FFADC
:1021C000002002F040FAE22002F03DFAE22007E0AF
:1021D0003038024000040240F8010020040100A051
:1021E00002F031FAE22002F02EFABF2002F037FAB4
:1021F000AA2002F028FAB02002F031FA0D2002F0F5
:1022000022FA002002F01FFA0D2002F01CFA002032
:1022100002F019FA112002F016FA002002F013FA67
:10222000192002F010FA002002F00DFA212002F02D
:102230000AFA002002F007FA2D2002F004FA00202A
:1022400002F001FA3D2002F0FEF9002002F0FBF955
:102250005D2002F0F8F9002002F0F5F95D2002F0AF
:10226000F2F9002002F0EFF9B12002F0F8F900E0F5
:10227000FEE3802002F0E7F9002002F0E4F98B2071
:1022800002F0E1F9002002F0DEF9962002F0DBF91D
:10229000002002F0D8F9B22002F0E1F9002002F0AB
:1022A000D2F9002002F0CFF9022002F0CCF9002090
:1022B00002F0C9F9032002F0C6F9002002F0C3F9C8
:1022C000B32002F0CCF9002002F0BDF9002002F0AA
:1022D000BAF9002002F0B7F9002002F0B4F90020AA
:1022E00002F0B1F9002002F0AEF9002002F0ABF9E3
:1022F000002002F0A8F9002002F0A5F9002002F069
:10230000A2F9002002F09FF9002002F09CF90020C1
:1023100002F099F9002002F096F9002002F093F9FA
:10232000002002F090F9002002F08DF9002002F068
:102330008AF9002002F087F9002002F084F90020D9
:1023400002F081F9002002F07EF9002002F07BF912
:10235000002002F078F9B42002F081F98B2002F01D
:1023600072F9002002F06FF9962002F06CF900205B
:1023700002F069F9A12002F066F9002002F063F989
:10238000B52002F06CF9022002F05DF9002002F0A5
:102390005AF9032002F057F9002002F054F9042002
:1023A00002F051F9002002F04EF9B62002F057F980
:1023B000002002F048F9002002F045F9B72002F0B1
:1023C0004EF9002002F03FF9002002F03CF93F20D6
:1023D00002F039F9002002F036F95E2002F033F9FC
:1023E000002002F030F9642002F02DF9002002F004
:1023F0002AF98C2002F027F9002002F024F9AC2001
:1024000002F021F9002002F01EF9DC2002F01BF995
:10241000002002F018F9702002F015F9002002F0F7
:1024200012F9902002F00FF9002002F00CF9EB20D5
:1024300002F009F9002002F006F9DC2002F003F9AD
:10244000002002F000F9B82002F009F9002002F0A3
:10245000FAF8002002F0F7F8002002F0F4F800206B
:1024600002F0F1F8002002F0EEF8002002F0EBF8A4
:10247000002002F0E8F8002002F0E5F8BA2002F0AF
:10248000EEF8242002F0DFF8002002F0DCF8002053
:1024900002F0D9F8002002F0D6F8C12002F0DFF8EF
:1024A000202002F0D0F8002002F0CDF8542002F0F5
:1024B000CAF8002002F0C7F8FF2002F0C4F800209C
:1024C00002F0C1F8C22002F0CAF80A2002F0BBF8FC
:1024D000002002F0B8F8042002F0B5F8002002F065
:1024E000B2F8C32002F0BBF83C2002F0ACF80020A8
:1024F00002F0A9F83A2002F0A6F8002002F0A3F8B2
:10250000392002F0A0F8002002F09DF8372002F0F8
:102510009AF8002002F097F83C2002F094F800208E
:1025200002F091F8362002F08EF8002002F08BF8CD
:10253000322002F088F8002002F085F82F2002F007
:1025400082F8002002F07FF82C2002F07CF80020B6
:1025500002F079F8292002F076F8002002F073F8F2
:10256000262002F070F8002002F06DF8242002F01E
:102570006AF8002002F067F8242002F064F80020D6
:1025800002F061F8232002F05EF8002002F05BF810
:102590003C2002F058F8002002F055F8362002F0F6
:1025A00052F8002002F04FF8322002F04CF80020E0
:1025B00002F049F82F2002F046F8002002F043F81C
:1025C0002C2002F040F8002002F03DF8292002F013
:1025D0003AF8002002F037F8262002F034F8002004
:1025E00002F031F8242002F02EF8002002F02BF83F
:1025F000242002F028F8002002F025F8232002F021
:1026000022F8002002F01FF8C42002F028F862200F
:1026100002F019F8002002F016F8052002F013F875
:10262000002002F010F8842002F00DF8002002F0E3
:102630000AF8F02002F007F8002002F004F8182051
:1026400002F001F8002001F0FEFFA42001F0FBFFE2
:10265000002001F0F8FF182001F0F5FF002001F044
:10266000F2FF502001F0EFFF002001F0ECFF0C2002
:1026700001F0E9FF002001F0E6FF172001F0E3FF81
:10268000002001F0E0FF952001F0DDFF002001F0C7
:10269000DAFFF32001F0D7FF002001F0D4FFE6209D
:1026A00001F0D1FF002001F0CEFFC52001F0D7FFDF
:1026B000322001F0C8FF002001F0C5FF442001F0E6
:1026C000C2FF002001F0BFFF652001F0BCFF002029
:1026D00001F0B9FF762001F0B6FF002001F0B3FF52
:1026E000882001F0B0FF002001F0ADFFC62001F00E
:1026F000B6FF202001F0A7FF002001F0A4FF172063
:1027000001F0A1FF002001F09EFF012001F09BFFDE
:10271000002001F098FFC72001F0A1FF002001F088
:1027200092FF002001F08FFF002001F08CFF0020BD
:1027300001F089FFC82001F092FF002001F083FF23
:10274000002001F080FF002001F07DFF002001F05B
:102750007AFFC92001F083FF002001F074FF002000
:1027600001F071FF002001F06EFF002001F06BFF0F
:10277000002001F068FF002001F065FF002001F05B
:1027800062FF002001F05FFF002001F05CFF0020ED
:1027900001F059FF002001F056FF002001F053FF27
:1027A000002001F050FF002001F04DFF002001F05B
:1027B0004AFF002001F047FFE02001F050FF162003
:1027C00001F041FF002001F03EFF1C2001F03BFF23
:1027D000002001F038FF212001F035FF002001F03A
:1027E00032FF362001F02FFF002001F02CFF4620A1
:1027F00001F029FF002001F026FF522001F023FF05
:10280000002001F020FF642001F01DFF002001F0F6
:102810001AFF7A2001F017FF002001F014FF8B202F
:1028200001F011FF002001F00EFF992001F00BFFD5
:10283000002001F008FFA82001F005FF002001F0B2
:1028400002FFB92001F0FFFE002001F0FCFEC420D1
:1028500001F0F9FE002001F0F6FECA2001F0F3FEBF
:10286000002001F0F0FED22001F0EDFE002001F08A
:10287000EAFED92001F0E7FE002001F0E4FEE020AE
:1028800001F0E1FE002001F0DEFEF32001F0DBFEAE
:10289000002001F0D8FEE12001F0E1FE162001F059
:1028A000D2FE002001F0CFFE1C2001F0CCFE002063
:1028B00001F0C9FE222001F0C6FE002001F0C3FE97
:1028C000362001F0C0FE002001F0BDFE452001F0E1
:1028D000BAFE002001F0B7FE522001F0B4FE002045
:1028E00001F0B1FE642001F0AEFE002001F0ABFE6D
:1028F0007A2001F0A8FE002001F0A5FE8B2001F057
:10290000A2FE002001F09FFE992001F09CFE002015
:1029100001F099FEA82001F096FE002001F093FE40
:10292000B92001F090FE002001F08DFEC42001F0DE
:102930008AFE002001F087FECA2001F084FE0020FC
:1029400001F081FED22001F07EFE002001F07BFE2E
:10295000D82001F078FE002001F075FEE02001F0A3
:1029600072FE002001F06FFEF32000E088E301F02A
:102970006AFE002001F067FEE22001F070FE0520F3
:1029800001F061FE002001F05EFE0B2001F05BFE15
:10299000002001F058FE1B2001F055FE002001F040
:1029A00052FE342001F04FFE002001F04CFE442086
:1029B00001F049FE002001F046FE4F2001F043FEE9
:1029C000002001F040FE612001F03DFE002001F0FA
:1029D0003AFE792001F037FE002001F034FE882015
:1029E00001F031FE002001F02EFE972001F02BFEB9
:1029F000002001F028FEA62001F025FE002001F0B5
:102A000022FEB72001F01FFE002001F01CFEC220B4
:102A100001F019FE002001F016FEC72001F013FEA0
:102A2000002001F010FED12001F00DFE002001F089
:102A30000AFED62001F007FE002001F004FEDD2092
:102A400001F001FE002001F0FEFDF32001F0FBFD8E
:102A5000002001F0F8FDE32001F001FE052001F067
:102A6000F2FD002001F0EFFD0A2001F0ECFD00E096
:102A700004E3002001F0E7FD1C2001F0E4FD00204C
:102A800001F0E1FD332001F0DEFD002001F0DBFD6F
:102A9000442001F0D8FD002001F0D5FD502001F0C8
:102AA000D2FD002001F0CFFD622001F0CCFD00201E
:102AB00001F0C9FD782001F0C6FD002001F0C3FD42
:102AC000882001F0C0FD002001F0BDFD972001F03D
:102AD000BAFD002001F0B7FDA62001F0B4FD0020F2
:102AE00001F0B1FDB72001F0AEFD002001F0ABFD1B
:102AF000C22001F0A8FD002001F0A5FDC72001F0D3
:102B0000A2FD002001F09FFDD12001F09CFD0020DE
:102B100001F099FDD52001F096FD002001F093FD14
:102B2000DD2001F090FD002001F08DFDF32001F08B
:102B30008AFD002001F087FDE42001F090FD0120D6
:102B400001F081FD002001F07EFD012001F07BFD00
:102B5000002001F078FD022001F075FD002001F059
:102B600072FD2A2001F06FFD002001F06CFD3C2079
:102B700001F069FD002001F066FD4B2001F063FDCE
:102B8000002001F060FD5D2001F05DFD002001F0FE
:102B90005AFD742001F057FD002001F054FD8420FF
:102BA00001F051FD002001F04EFD932001F04BFD9E
:102BB000002001F048FDA22001F045FD002001F0B9
:102BC00042FDB32001F03FFD002001F03CFDBE209E
:102BD00001F039FD002001F036FDC42001F033FD85
:102BE000002001F030FDCD2001F02DFD002001F08E
:102BF0002AFDD32001F027FD002001F024FDDD2077
:102C000001F021FD002001F01EFDF32001F01BFD6D
:102C1000002001F018FDE52001F021FD002001F069
:102C200012FD002001F00FFD002001F00CFD00203E
:102C300001F009FD022001F006FD002001F003FD76
:102C4000292001F000FD002001F0FDFC3C2001F0F6
:102C5000FAFC002001F0F7FC4B2001F0F4FC00200E
:102C600001F0F1FC5D2001F0EEFC002001F0EBFC36
:102C7000742001F0E8FC002001F0E5FC842001F064
:102C8000E2FC002001F0DFFC932001F0DCFC0020DE
:102C900001F0D9FCA22001F0D6FC002001F0D3FC09
:102CA000B32001F0D0FC002001F0CDFCBE2001F0EB
:102CB000CAFC002001F0C7FCC42001F0C4FC0020C5
:102CC00001F0C1FCCD2001F0BEFC002001F0BBFCF6
:102CD000D32001F0B8FC002001F0B5FCDC2001F0AD
:102CE000B2FC002001F0AFFCF32001F0ACFC0020AE
:102CF00001F0A9FCE62001F0B2FC112001F0A3FCD8
:102D0000002001F0A0FC342001F09DFC002001F027
:102D10009AFC562001F097FC002001F094FC7620EC
:102D200001F091FC002001F08EFC772001F08BFC7B
:102D3000002001F088FC662001F085FC002001F0F5
:102D400082FC882001F07FFC002001F07CFC9920AF
:102D500001F079FC002001F076FCBB2001F073FC4F
:102D6000002001F070FC992001F06DFC002001F0C2
:102D70006AFC662001F067FC002001F064FC55202D
:102D800001F061FC002001F05EFC552001F05BFCCD
:102D9000002001F058FC452001F055FC002001F016
:102DA00052FC432001F04FFC002001F04CFC442079
:102DB00001F049FC002001F046FCE72001F04FFC47
:102DC000322001F040FC002001F03DFC552001F0D4
:102DD0003AFC002001F037FC762001F034FC0020A2
:102DE00001F031FC662001F02EFC002001F02BFCEC
:102DF000672001F028FC002001F025FC672001F08D
:102E000022FC002001F01FFC872001F01CFC0020A8
:102E100001F019FC992001F016FC002001F013FCD0
:102E2000BB2001F010FC002001F00DFC992001F006
:102E30000AFC002001F007FC772001F004FC0020D0
:102E400001F001FC442001F0FEFB002001F0FBFB3F
:102E5000562001F0F8FB002001F0F5FB232001F0E3
:102E6000F2FB002001F0EFFB332001F0ECFB00202F
:102E700001F0E9FB452001F0E6FB002001F0E3FB57
:102E8000E82001F0ECFB002001F0DDFB002001F068
:102E9000DAFB992001F0D7FB002001F0D4FB87205A
:102EA00001F0D1FB002001F0CEFB882001F0CBFB2C
:102EB000002001F0C8FB772001F0C5FB002001F0E5
:102EC000C2FB662001F0BFFB002001F0BCFB8820A4
:102ED00001F0B9FB002001F0B6FBAA2001F0B3FB22
:102EE000002001F0B0FBBB2001F0ADFB002001F0A1
:102EF000AAFB992001F0A7FB002001F0A4FB6620AB
:102F000001F0A1FB002001F09EFB552001F09BFB8E
:102F1000002001F098FB552001F095FB002001F006
:102F200092FB442001F08FFB002001F08CFB442039
:102F300001F089FB002001F086FB552001F083FBA6
:102F4000002001F080FBE92001F089FBAA2001F0BC
:102F50007AFB002001F077FB002001F074FB0020D9
:102F600001F071FB002001F07AFBAA2001F06BFB5D
:102F7000CF2001F074FB002001F065FB002001F080
:102F800062FB002001F05FFB002001F05CFB0020F1
:102F900001F059FB002001F056FB002001F053FB2B
:102FA000002001F050FB002001F04DFB002001F05B
:102FB0004AFB002001F047FB002001F044FB002009
:102FC00001F041FB002001F03EFB002001F03BFB43
:102FD000002001F038FB002001F035FBF02001F06B
:102FE0003EFB002001F02FFB502001F02CFB0020C5
:102FF00001F029FB002001F026FB002001F023FB5B
:10300000F32001F02CFB002001F01DFBF92001F062
:1030100026FB062001F017FB102001F014FB2920ED
:1030200001F011FB002001F00EFB3A2001F017FB2C
:10303000552001F008FB112001F011FB642001F084
:103040006BFF292001F00BFB352001F008FB00206D
:1030500001F0F9FA512001F002FBFF2001F0F3FA30
:10306000532001F0FCFA2C2001F0EDFA552001F07C
:10307000F6FA822001F0E7FA2C20FDE3A8427CD189
:103080004FF470435521184601F000FBAA214FF27E
:10309000010001F0FBFA52214FF2020001F0F6FAB2
:1030A00008214FF2030001F0F1FA01214FF2040070
:1030B00001F0ECFA0D214FF4304001F0E7FA0D2158
:1030C0004BF2010001F0E2FA0D214BF2020001F097
:1030D000DDFA34214FF4364001F0D8FA34214BF2B6
:1030E000016001F0D3FA34214BF2026001F0CEFA14
:1030F0000D214FF4314001F0C9FA0D214BF20110BE
:1031000001F0C4FA0D214BF2021001F0BFFA342194
:103110004FF4374001F0BAFA34214BF2017001F05C
:10312000B5FA34214BF2027001F0B0FA00214FF4ED
:10313000324001F0ABFA00214BF2012001F0A6FA77
:1031400000214BF2022001F0A1FA24214FF4384073
:1031500001F09CFA24214BF6010001F097FA24219A
:103160004BF6020001F092FA01214FF43F4001F0CA
:103170008DFA0F214FF4334000E0FCE301F086FAB2
:103180000F214BF2013001F081FA0F214BF2023096
:1031900001F07CFA34214FF4394001F077FA342100
:1031A0004BF6011001F072FA34214BF6021001F0D7
:1031B0006DFA08214FF4354001F068FA08214BF20E
:1031C000015001F063FA08214BF2025001F05EFA5F
:1031D00003214FF4424001F059FA24214FF43A40C0
:1031E00001F054FA24214BF6012001F04FFA24217A
:1031F0004BF6022001F04AFA00214FF43C4001F066
:1032000045FA78214BF6014001F040FA00214BF6D7
:10321000024001F03BFA00214FF43D4001F036FA44
:1032200078214BF6015001F031FA00214BF60250A3
:1032300001F02CFA00214FF43E4001F027FA6421FE
:103240004BF6016001F022FA00214FF4514001F0E9
:103250001DFA33214DF2011001F018FA00214DF250
:10326000021001F013FA34214DF2031001F00EFAAE
:1032700000214DF2041001F009FA3A214DF2051037
:1032800001F004FA00214DF2061001F0FFF94A2185
:103290004DF2071001F0FAF900214DF2081001F08B
:1032A000F5F95C214DF2091001F0F0F900214DF221
:1032B0000A1001F0EBF981214DF20B1001F0E6F953
:1032C00000214DF20C1001F0E1F9A6214DF20D1094
:1032D00001F0DCF900214DF20E1001F0D7F9E521E3
:1032E0004DF20F1001F0D2F901214DF2101001F052
:1032F000CDF913214DF2111001F0C8F901214DF261
:10330000121001F0C3F954214DF2131001F0BEF96F
:1033100001214DF2141001F0B9F982214DF215107E
:1033200001F0B4F901214DF2161001F0AFF9CA21F4
:103330004DF2171001F0AAF902214DF2181001F018
:10334000A5F900214DF2191001F0A0F902214DF26A
:103350001A1001F09BF901214DF21B1001F096F9B2
:1033600002214DF21C1001F091F934214DF21D1093
:1033700001F08CF902214DF21E1001F087F967214E
:103380004DF21F1001F082F902214DF2201001F0E0
:103390007DF984214DF2211001F078F902214DF2DE
:1033A000221001F073F9A4214DF2231001F06EF9FF
:1033B00002214DF2241001F069F9B7214DF22510D8
:1033C00001F064F902214DF2261001F05FF9CF21DE
:1033D0004DF2271001F05AF902214DF2281001F0A8
:1033E00055F9DE214DF2291001F050F902214DF27C
:1033F0002A1001F04BF9F2214DF22B1001F046F9A1
:1034000002214DF22C1001F041F9FE214DF22D1058
:1034100001F03CF903214DF22E1001F037F9102193
:103420004DF22F1001F032F903214DF2301001F06E
:103430002DF933214DF2311001F028F903214DF21D
:10344000321001F023F96D214DF2331001F01EF915
:1034500000214FF4524001F019F933214DF20120BF
:1034600001F014F900214DF2022001F00FF934218E
:103470004DF2032001F00AF900214DF2042001F081
:1034800005F93A214DF2052001F000F900214DF235
:10349000062001F0FBF84A214DF2072001F0F6F872
:1034A00000214DF2082001F0F1F85C214DF20920D5
:1034B00001F0ECF800214DF20A2001F0E7F881213B
:1034C0004DF20B2001F0E2F800214DF20C2001F04A
:1034D000DDF8A6214DF20D2001F0D8F800214DF2C3
:1034E0000E2001F0D3F8E5214DF20F2001F0CEF8C7
:1034F00001214DF2102001F0C9F813214DF21120E5
:1035000001F0C4F801214DF2122001F0BFF854215E
:103510004DF2132001F0BAF801214DF2142001F010
:10352000B5F882214DF2152001F0B0F801214DF2DD
:10353000162001F0ABF8CA214DF2172001F0A6F8D1
:1035400002214DF2182001F0A1F800214DF21920BE
:1035500001F09CF802214DF21A2001F097F80121A8
:103560004DF21B2001F092F802214DF21C2001F0D7
:103570008DF834214DF21D2001F088F802214DF222
:103580001E2001F083F867214DF21F2001F07EF824
:1035900002214DF2202001F079F884214DF2212002
:1035A00001F074F802214DF2222001F06FF8A421FD
:1035B0004DF2232001F06AF802214DF2242001F09F
:1035C00065F8B7214DF2252001F060F802214DF297
:1035D000262001F05BF8CF214DF2272001F056F8AC
:1035E00002214DF2282001F051F8DE214DF2292070
:1035F00001F04CF802214DF22A2001F047F8F221A7
:103600004DF22B2001F042F802214DF22C2001F066
:103610003DF8FE214DF22D2001F038F803214DF246
:103620002E2001F033F810214DF22F2001F02EF85A
:1036300003214DF2302001F029F833214DF23120E1
:1036400001F024F803214DF2322001F01FF86D2122
:103650004DF2332001F01AF800214FF4534001F0ED
:1036600015F833214DF2013001F010F800214DF230
:10367000023001F00BF834214DF2033001F006F86E
:1036800000214DF2043001F001F83A214DF20530ED
:1036900000F0FCFF00214DF2063000F0F7FF4A2158
:1036A0004DF2073000F0F2FF00214DF2083000F03B
:1036B000EDFF5C214DF2093000F0E8FF00214DF2F2
:1036C0000A3000F0E3FF81214DF20B3000F0DEFF05
:1036D00000214DF20C3000F0D9FFA6214DF20D3043
:1036E00000F0D4FF00214DF20E3000F0CFFFE521B5
:1036F0004DF20F3000F0CAFF01214DF2103000F002
:10370000C5FF13214DF2113000F0C0FF01214DF231
:10371000123000F0BBFF54214DF2133000F0B6FF21
:1037200001214DF2143000F0B1FF82214DF215302D
:1037300000F0ACFF01214DF2163000F0A7FFCA21C6
:103740004DF2173000F0A2FF02214DF2183000F0C8
:103750009DFF00214DF2193000F098FF02214DF23B
:103760001A3000F093FF01214DF21B3000F08EFF64
:1037700002214DF21C3000F089FF34214DF21D3042
:1037800000F084FF02214DF21E3000F07FFF672120
:103790004DF21F3000F07AFF02214DF2203000F090
:1037A00075FF84214DF2213000F070FF02214DF2AF
:1037B000223000F06BFFA4214DF2233000F066FFB1
:1037C00002214DF2243000F061FFB7214DF2253087
:1037D00000F05CFF02214DF2263000F057FFCF21B0
:1037E0004DF2273000F052FF02214DF2283000F058
:1037F0004DFFDE214DF2293000F048FF02214DF24D
:103800002A3000F043FFF2214DF22B3000F03EFF52
:1038100002214DF22C3000F039FFFE214DF22D3007
:1038200000F034FF03214DF22E3000F02FFF102165
:103830004DF22F3000F02AFF03214DF2303000F01E
:1038400025FF33214DF2313000F020FF03214DF2EE
:10385000323000F01BFF6D214DF2333000F016FFC7
:1038600000214FF4544000F011FF33214DF201408C
:1038700000F00CFF002100E082E34DF2024000F076
:1038800005FF34214DF2034000F000FF00214DF20E
:10389000044000F0FBFE3A214DF2054000F0F6FE38
:1038A00000214DF2064000F0F1FE4A214DF20740A2
:1038B00000F0ECFE00214DF2084000F0E7FE5C2134
:1038C0004DF2094000F0E2FE00214DF20A4000F006
:1038D000DDFE81214DF20B4000F0D8FE00214DF2BB
:1038E0000C4000F0D3FEA6214DF20D4000F0CEFEBC
:1038F00000214DF20E4000F0C9FEE5214DF20F40CF
:1039000000F0C4FE01214DF2104000F0BFFE132173
:103910004DF2114000F0BAFE01214DF2124000F0CC
:10392000B5FE54214DF2134000F0B0FE01214DF2DE
:10393000144000F0ABFE82214DF2154000F0A6FECF
:1039400001214DF2164000F0A1FECA214DF21740B0
:1039500000F09CFE02214DF2184000F097FE00217D
:103960004DF2194000F092FE02214DF21A4000F093
:103970008DFE012100E006E34DF21B4000F086FEC3
:1039800002214DF21C4000F081FE34214DF21D4019
:1039900000F07CFE02214DF21E4000F077FE672110
:1039A0004DF21F4000F072FE02214DF2204000F067
:1039B0006DFE84214DF2214000F068FE02214DF29F
:1039C000224000F063FEA4214DF2234000F05EFE91
:1039D00002214DF2244000F059FEB7214DF225405E
:1039E00000F054FE02214DF2264000F04FFECF21A0
:1039F0004DF2274000F04AFE02214DF2284000F02F
:103A000045FEDE214DF2294000F040FE02214DF23C
:103A10002A4000F03BFEF2214DF22B4000F036FE32
:103A200002214DF22C4000F031FEFE214DF22D40DE
:103A300000F02CFE03214DF22E4000F027FE102155
:103A40004DF22F4000F022FE03214DF2304000F0F5
:103A50001DFE33214DF2314000F018FE03214DF2DE
:103A6000324000F013FE6D214DF2334000F00EFEA7
:103A700000214FF4554000F009FE33214DF2015072
:103A800000F004FE00214DF2025000F0FFFD342151
:103A90004DF2035000F0FAFD00214DF2045000F009
:103AA000F5FD3A214DF2055000F0F0FD00214DF2F8
:103AB000065000F0EBFD4A214DF2075000F0E6FD04
:103AC00000214DF2085000F0E1FD5C214DF209505B
:103AD00000F0DCFD00214DF20A5000F0D7FD8121FD
:103AE0004DF20B5000F0D2FD00214DF20C5000F0D1
:103AF000CDFDA6214DF20D5000F0C8FD00214DF284
:103B00000E5000F0C3FDE5214DF20F5000F0BEFD58
:103B100001214DF2105000F0B9FD13214DF211506A
:103B200000F0B4FD01214DF2125000F0AFFD542120
:103B30004DF2135000F0AAFD01214DF2145000F097
:103B4000A5FD82214DF2155000F0A0FD01214DF29E
:103B5000165000F09BFDCA214DF2175000F096FD63
:103B600002214DF2185000F091FD00214DF2195044
:103B700000F08CFD02214DF21A5000F087FD01216A
:103B80004DF21B5000F082FD02214DF21C5000F05E
:103B90007DFD34214DF21D5000F078FD02214DF2E3
:103BA0001E5000F073FD67214DF21F5000F06EFDB6
:103BB00002214DF2205000F069FD84214DF2215088
:103BC00000F064FD02214DF2225000F05FFDA421BF
:103BD0004DF2235000F05AFD02214DF2245000F026
:103BE00055FDB7214DF2255000F050FD02214DF258
:103BF000265000F04BFDCF214DF2275000F046FD3E
:103C000002214DF2285000F041FDDE214DF22950F5
:103C100000F03CFD02214DF22A5000F037FDF22168
:103C20004DF22B5000F032FD02214DF22C5000F0ED
:103C30002DFDFE214DF22D5000F028FD03214DF207
:103C40002E5000F023FD10214DF22F5000F01EFDEC
:103C500003214DF2305000F019FD33214DF2315067
:103C600000F014FD03214DF2325000F00FFD6D21E4
:103C70004DF2335000F00AFD00214FF4564000F0A1
:103C800005FD33214DF2016000F000FD00214DF2F1
:103C9000026000F0FBFC34214DF2036000F0F6FC02
:103CA00000214DF2046000F0F1FC3A214DF2056074
:103CB00000F0ECFC00214DF2066000F0E7FC4A2128
:103CC0004DF2076000F0E2FC00214DF2086000F0C8
:103CD000DDFC5C214DF2096000F0D8FC00214DF2C2
:103CE0000A6000F0D3FC81214DF20B6000F0CEFCA5
:103CF00000214DF20C6000F0C9FCA6214DF20D60D0
:103D000000F0C4FC00214DF20E6000F0BFFCE52184
:103D10004DF20F6000F0BAFC01214DF2106000F08E
:103D2000B5FC13214DF2116000F0B0FC01214DF201
:103D3000126000F0ABFC54214DF2136000F0A6FCC1
:103D400001214DF2146000F0A1FC82214DF21560BA
:103D500000F09CFC01214DF2166000F097FCCA2196
:103D60004DF2176000F092FC02214DF2186000F055
:103D70008DFC00214DF2196000F088FC02214DF20B
:103D80001A6000F083FC01214DF21B6000F07EFC04
:103D900002214DF21C6000F079FC34214DF21D60CF
:103DA00000F074FC02214DF21E6000F06FFC6721F0
:103DB0004DF21F6000F06AFC02214DF2206000F01D
:103DC00065FC84214DF2216000F060FC02214DF27F
:103DD000226000F05BFCA4214DF2236000F056FC51
:103DE00002214DF2246000F051FCB7214DF2256014
:103DF00000F04CFC02214DF2266000F047FCCF2180
:103E00004DF2276000F042FC02214DF2286000F0E4
:103E10003DFCDE214DF2296000F038FC02214DF21C
:103E20002A6000F033FCF2214DF22B6000F02EFCF2
:103E300002214DF22C6000F029FCFE214DF22D6094
:103E400000F024FC03214DF22E6000F01FFC102135
:103E50004DF22F6000F01AFC03214DF2306000F0AB
:103E600015FC33214DF2316000F010FC03214DF2BE
:103E7000326000F00BFC6D214DF2336000F006FC67
:103E80005521184600F002FCAA214FF2010000F073
:103E9000FDFB52214FF2020000F0F8FB08214FF227
:103EA000030000F0F3FB00214FF2040000F0EEFBF2
:103EB000CC214FF4314000F0E9FB00214BF201101E
:103EC00000F0E4FB05214FF4364000F0DFFB7021E9
:103ED0004FF4374000F0DAFB70214BF2017000F034
:103EE000D5FB01214FF4384000F0D0FB03214BF605
:103EF000010000F0CBFB03214BF6020000F0C6FBF3
:103F000003214BF6030000F0C1FB02214FF43C40BB
:103F100000F0BCFB00214BF6014000F0B7FB002194
:103F20004BF6024000F0B2FBD0214FF4494000F0C4
:103F3000ADFB02214CF6011000F0A8FB50214CF61D
:103F4000021000F0A3FB50214CF6031000F09EFB82
:103F500050214CF6041000F099FB00214FF454500E
:103F600000F094FB55214FF4685000F08FFB4FF4A4
:103F7000885000F074FB782000F0DCFF4FF42450F0
:103F800000F06DFBB9E04045FCD1E22000F067FB9A
:103F90001D2000F058FB022000F055FB042000F02B
:103FA00052FB642000F0C6FFE02000F058FB012027
:103FB00000F049FB0A2000F0AFFFE02000F04FFBCB
:103FC000032000F040FB0C2000F0A6FF012000F0D1
:103FD00046FB0A2000F0A0FFE62000F040FB2F2067
:103FE00000F031FBFF2000F02EFBFF2000F02BFB48
:103FF000B02000F034FB202000F025FB002000F072
:1040000022FB032000F01FFB40F21F3000F01BFBDF
:10401000012000F018FB40F2DF1000F014FB00203C
:1040200000F011FBB42000F01AFB042000F00BFBA1
:1040300040F21F4000F007FB002000F004FB2E20A0
:1040400000F001FB002000F0FEFA002000F0FBFA77
:10405000002000F0F8FA002000F0F5FAB62000F099
:10406000FEFA022000F0EFFA4FF4037000F0EBFAD2
:10407000002000F0E8FA172000F0E5FA152000F023
:10408000E2FA002000F0DFFA002000F0DCFAF02075
:1040900000F0E5FA032000F0D6FA292000F0DFFA5C
:1040A000D02000F0DCFA002000F0CDFABE2000F0B5
:1040B000D6FA052000F0C7FAFE2000F0C4FA01206D
:1040C00000F0C1FA002000F0BEFA002000F0BBFAB8
:1040D000002000F0B8FAB82000F0C1FA032000F088
:1040E000B2FA012000F0AFFABA2000F0B8FA0120CD
:1040F00000F0A9FA642000F041F8A088B04205D091
:10410000B84203D0A84201D0404517D1D9F81C11BC
:1041100021F00F01C9F81C11D9F81C1121F47061AC
:10412000C9F81C11D9F81C1141F00301C9F81C1180
:10413000D9F81C1141F40071C9F81C110020FDF7D9
:1041400069FD0449C1F8BCA25846FDF72DFD15B024
:10415000BDE8F08F008040420246012000E050435D
:10416000491EC9B2FBD2704708B54FF0D840B0F82D
:104170008000ADF80000BDF8000008BD10B5024693
:10418000BE2000F06CFA052000F05DFA104600F049
:10419000A0FF9FED0C1B53EC112B00F0ADFF00F0C6
:1041A0006BFF80B200F04FFA012000F04CFAFF20C4
:1041B00000F049FA002000F046FABDE81040002067
:1041C00000F041BA6666666666660440F0B56C4CFF
:1041D00000232146A279898841F66316012A01D07D
:1041E0001AB11BE0B14202D118E0B14216D1082841
:1041F00014D2DFE800F00406080A0C0E10120620A4
:104200000CE007200AE0042008E0052006E0012079
:1042100004E0002002E0032000E00220A1F51347A3
:1042200045F2103245F21055413F05D0914203D07E
:10423000A94201D0B14277D1082812D2DFE800F0BC
:10424000110406080A0C0E1080230AE0402308E03F
:10425000C02306E0202304E0602302E0A02300E066
:10426000E023A94202D14FF4585000E03620914299
:1042700005D0A94203D0B14201D043F0080319464A
:1042800000F004FAA188B1420AD09806208862881A
:1042900002D5904202D303E0904201D9228060808F
:1042A0006089A94241D100F0DAF9002000F0CBF991
:1042B0006089401C80B200F0D2F9002000F0C3F900
:1042C0006089801C80B200F0CAF92088401EC0F3CB
:1042D0000F2000F0B8F96089C01C80B200F0BFF96F
:1042E0002078401EC0B200F0AEF9A08900F0B7F906
:1042F000002000F0A8F9A089401C80B200F0AFF9BE
:10430000002000F0A0F9A089801C80B200F0A7F97D
:104310006088401EC0F30F2000F095F9A089C01CF2
:1043200080B200F09CF922E028E000F098F900202B
:1043300000F089F9002000F086F92088401EC0F3C3
:104340000F2000F080F92078401EC0B200F07BF909
:10435000A08900F084F9002000F075F9002000F039
:1043600072F96088401EC0F30F2000F06CF9A0784D
:10437000BDE8F040401EC0B200F065B9F0BD0000DD
:1043800048020020F0B53F4A0D460446060A9188CF
:1043900010462F0A4089A1F51343413B28D0A1F5CF
:1043A000A643103B24D0A1F5C853633B2FD0A1F501
:1043B000AA43103B64D100F052F9304600F043F9B3
:1043C0005089401C80B200F04AF9E0B200F03BF99D
:1043D000908900F044F9384600F035F99089401C86
:1043E00080B200F03CF9E8B2BDE8F04000F02BB933
:1043F00000F035F9304600F026F9E0B200F023F97C
:10440000908900F02CF9384600F01DF9EBE791791E
:1044100029B300F024F9304600F015F9E0B200F0BD
:1044200012F91088401EC0F30F2000F00CF910782C
:10443000401EC0B200F007F9908900F010F938462C
:1044400000F001F9E8B200F0FEF85088401EC0F319
:104450000F2000F0F8F89078401EC0B2C4E7118831
:10446000091B491E8CB200F0FAF8002000F0EBF8AE
:10447000002000F0E8F8200A00F0E5F8E0B2D9E703
:10448000F0BD0000480200202DE9FF4F1D460C46FC
:104490008A46580700D0012000EBD500690810FBC0
:1044A00001F0203A00F0FF09D0B20026DFF8A4B0F6
:1044B00002904BE00C2D11D0102D14D0182D17D0D8
:1044C000202D45D12449029801EBC0104FF000087F
:1044D000875D380613D52148026814E00298204908
:1044E00000EB400008E01F49029801EB0010EDE7E7
:1044F00002981D4900EBC00001EB8000E6E70D9833
:1045000028B91648426821460098FDF7EFFB780667
:10451000070E641CBBF80200A4B2A04218D9A4EB99
:104520000A00A84209D100985446401C80B200906D
:10453000BBF8001081420BD906E008F1010000F041
:10454000FF08B8F1080FC4D3761CF6B24E45B1D3BC
:10455000BDE8FF8F48020020D66A00081C0000203A
:10456000165300088A5700087A5D00082DE9F84FB5
:10457000044600F0FF0910190D46DDE90AB61FFADE
:1045800080F8581987B24FF0000A12E0444503D36F
:1045900005EB0B004C4685B2BD420FD25B46294667
:1045A0002046CDF800A0FFF76FFF04EB5B0084B25C
:1045B000761C3278A2F120005E28E7D9BDE8F88F9A
:1045C0002DE9FF4F81B04FF00008DDE90EBA1E461D
:1045D000814644460AF001054FEA5B072CE0301B98
:1045E000401EC1B20A20FFF7B7FD0399B1FBF0F0FE
:1045F0000A21B0FBF1F201FB1200B8F1000F05D166
:10460000711E8C4202DA48B14FF001083030C2B25C
:1046100007FB049080B25B46009508E05FEA0A6001
:1046200007FB049080B25B4600950AD530220299C0
:10463000FFF72AFF641CE4B2B442D0D305B0BDE852
:10464000F08F2022F3E701B5BDF80000ADF80000BF
:10465000BDF800004FF0D841A1F8800008BD01B5B9
:10466000BDF80000ADF80000BDF800004FF0D841E3
:10467000A1F87E0008BD000003484FF0D841008932
:10468000A1F87E0070470000480200204FF0D84299
:1046900022F87E0F518070477FB5002415480094A2
:1046A000019402941249039401604FF48031C0E9EF
:1046B00001140461047680F820400F49C0E90A140F
:1046C0000125C561C46080F830404561FCF712F9EE
:1046D00008B1FBF741FFCDE9004569460548029462
:1046E000FBF7C2FF002801D0FBF736FF7FBD0000BB
:1046F000002001402C0000200100000F2DE9F043B4
:104700008FB01C216846FBF726FE1C2107A8FBF78B
:1047100022FE2C4806210024C0E902141025C0E91D
:1047200004458461C4614FF480590462C0E90949B9
:10473000A902C0E90B414463DFF88C8084634FF029
:1047400020464464C0E900680F2001AA3C21009083
:1047500082E83300082711210997CDE905140922C1
:10476000CDE90A45CDE90720CDE90C1407AA694631
:104770001448FCF752FF08B1FBF7EEFE1148042184
:1047800050300022C0E90214C0E904458461C461CC
:104790000462C0E90949C4620463446384634464F5
:1047A000C0E900680094CDE9014703946946069486
:1047B000FCF733FF002801D0FBF7CEFE0FB0BDE8B9
:1047C000F083000074000020040100A02DE9F041F6
:1047D00086B014216846FBF7BEFD3348002401680B
:1047E00041F004010160016801F0040105910168D4
:1047F00041F020010160016801F02001059101688C
:1048000041F080010160016801F0800105910168BB
:1048100041F001010160016801F0010105910168A9
:1048200041F040010160016801F04001059101681B
:1048300041F010010160016801F01001059101686B
:1048400041F002010160016801F002010591016877
:1048500041F0080101600068144F00F008004FF4B7
:10486000C0650590002229463846FCF70DFADFF8AE
:1048700040806E01002231464046FCF705FA009563
:104880000125CDE90154694638460394FCF7FCF84C
:104890000096CDE90154694640460394FCF7F4F8CC
:1048A00006B0BDE8F081000030380240001402403C
:1048B000000402400F4810B50D4901604FF48271A9
:1048C000416000218160C1604FF400720161C0E964
:1048D0000512C1610162416281620A21C162FCF775
:1048E00019FD002803D0BDE81040FBF735BE10BD10
:1048F000003001401401002010B586B00024184893
:104900000094019402940394049414490594016062
:1049100042F2CF01C0E9011441F22331C0E903148E
:104920008461FCF705FF08B1FBF716FE4FF48050D9
:10493000009069460A48FCF787FF08B1FBF70CFEB8
:10494000049404A906480594FCF7AAFE08B1FBF7F5
:1049500003FE0348FCF738FF06B010BD000400401A
:104960006C0100200C4810B50A4901604FF4E13198
:104970004160002181600C22C160C0E904128161A4
:10498000C161FDF794F8002803D0BDE81040FBF7A3
:10499000E3BD10BD00100140B4010020FEE7FEE7BA
:1049A0007047000001B582B04FF47A700090012387
:1049B00001AA02A90248FCF73FFD9DF804000EBDC4
:1049C000140100200B4910B50A68136823F0400356
:1049D00013600A6813684FF6C774234013600A68AF
:1049E0001368034313600868016841F040010160E7
:1049F00010BD00001401002038B504461248134BC6
:104A00000068B0FBF3F04FF47A735843009060688D
:104A1000B0F5827F0DD10B46009200228021204606
:104A200000F016F870B1606D40F020006065032062
:104A300038BD009830B1401E009020688068C043A7
:104A40000006F6D5002038BD1800002000366E01A3
:104A50002DE9F8431E46914688460446089DFCF71A
:104A600019F9401B351AFCF715F907462548006867
:104A7000C0F3CB30684338E0701C37D0FCF70AF93C
:104A8000C01BA84203D215B1009860B32CE0206887
:104A9000416821F0E00141606068B0F5827F0BD190
:104AA000A068B0F5004F02D0B0F5806F04D1206847
:104AB000016821F040010160A06AB0F5005F09D1F2
:104AC0002068016821F4005101602068016841F408
:104AD00000510160012084F85100002084F850004A
:104AE0000320BDE8F8830025401E009020688168FF
:104AF00038EA010004D000214945BDD10020F0E78B
:104B00000121F9E7180000207047FCF7C9B8000040
:104B100030B593B030216846FBF71DFC14210CA87A
:104B2000FBF719FC1C480025016841F08051016029
:104B3000006800F0805011901848016841F48041ED
:104B400001600068022400F4804011900120009070
:104B5000000401908001CDE906400420089048201F
:104B6000CDE9090403200B906846FCF71DFA08B153
:104B700072B6FEE70CA90F2081E831004FF4805097
:104B8000CDE90F0502210CA8FCF724F9002801D07B
:104B900072B6FEE713B030BD4038024000700040EE
:104BA0000248016841F470010160704788ED00E03F
:104BB0000148FCF7B8BE00006C010020F0B50268A7
:104BC000254C264D264E274F274B4FF0804CA042B8
:104BD00009D0604507D0A84205D0B04203D0B84202
:104BE00001D0984204D122F0700E4A6842EA0E02C7
:104BF000A0421BD0604519D0A84217D0B04215D0B2
:104C0000B84213D0984211D0184DA8420ED0184D7A
:104C1000A8420BD0174DA84208D0174DA84205D086
:104C2000164DA84202D0164DA84203D122F4407579
:104C3000CA682A434D6922F080022A4302608A68CA
:104C4000C2620A688262A04201D0984201D1096919
:104C5000016301214161F0BD0000014000040040FA
:104C600000080040000C00400004014000400140EA
:104C7000004401400048014000180040001C004072
:104C80000020004010B5846842EA032224F47F44E7
:104C90000A432243826010BD826822F070020A43F8
:104CA00042F007018160704710B5036A046A24F07E
:104CB00001040462846924F0F00444EA021423F03D
:104CC0000A020A438461026210BD10B5036A23F030
:104CD000100303628369046A23F4704343EA0232D7
:104CE00024F0A00343EA01118261016210BD0000BB
:104CF00070B5044600680169E26821F4405111432F
:104D000001612169A068E2690843616911430843B0
:104D10002168CA6849F20C639A430243CA6020685A
:104D20004169A26921F44071114341613149206810
:104D3000884202D03049884202D1FCF7F5F801E000
:104D4000FCF7E2F8E2690023192164253226B2F566
:104D5000004F626828D0A0FB0101930F9200FBF77F
:104D600083FA0146B0FBF5F06FF01802504301EBF7
:104D7000800006EB0010B0FBF5F000F0F002B1FB94
:104D8000F5F002EB0012B1FBF5F06FF01803584399
:104D900001EB800006EB0010B0FBF5F000F00F0017
:104DA00021681044886070BDA0FB010192185B412E
:104DB000FBF75AFA0146B0FBF5F00201B1FBF5F042
:104DC0006FF01803584301EB800006EBC000B0FB06
:104DD000F5F000F0F80002EB4002B1FBF5F05843AB
:104DE00001EB800006EBC000B0FBF5F000F007001F
:104DF000D6E700000010014000140140FEE700006B
:104E000070B51A4886B00026016841F002010160C1
:104E10000068012500F0020005904FF48040CDE9C4
:104E200000050220CDE9025069461148FBF72CFE2F
:104E3000104CC4F8B852FFF73DFD0020FFF7C2FD4B
:104E400000F01CF80C490880A0F56F4118390BD10F
:104E5000032000F035F8C00706D1C4F8B862B720C7
:104E6000FFF7A0FDC4F8B85206B070BD303802405C
:104E700000040240008040422800002070B50F4C22
:104E80000025C4F8B852902004F52E74FFF78AFD6F
:104E90000020FFF787FD0020FFF784FD0020FFF7CB
:104EA00081FDFF20FFF77EFD45EA0025FF20FFF78B
:104EB00079FD28430121216070BD0000008040423F
:104EC00010B5012803D0022803D0032803D0052001
:104ED00002E0352000E01520064C0021C4F8B8128D
:104EE00004F52E74FFF75EFDFF20FFF75BFD012147
:104EF000216010BD008040420907090E002804DB34
:104F000000F1E02080F80014704700F00F0000F17D
:104F1000E02080F8141D704770B5054600244FF45A
:104F20007A7603E0304600F005F8641CAC42F9D311
:104F300070BD000070B54FF0E0240022656909499A
:104F4000A36909684843A1699942FCD002D2A3EB46
:104F5000010302E0A5EB010633441A440B468242EA
:104F6000F1D370BD240000202DE9FE4F824625A01C
:104F70001027CDE90070002401F1100083B28B46A8
:104F800025468DF80840EF225046FFF7EFFA3E0421
:104F90000122214602A8FBF759FB9DF8080004F501
:104FA0008054401C8DF80800B442F1D30024012243
:104FB000214602A8FBF73EFBB146B8460AF1780647
:104FC0001DE00122214602A8FBF734FBBCB19DF88D
:104FD0000800B84211D900BF9DF80800CDE900854E
:104FE000C01B401C0004820BB0B204235946FFF7DB
:104FF000E7FA04F580544C45E3D3BDE8FE8F9DF8F5
:105000000870E9E74578204D656D6F727920546529
:1050100073743A202020304B42000000FBF748FE1A
:10502000FFF776FDFFF7D2FBFFF768FBFFF79AFC6F
:10503000FFF762FCFFF730FBFFF73CFCFFF7E0FEF9
:105040000520FBF7BBFCFCF7C1FEFCF7C7FD4FF4E6
:10505000FC60FCF7A9FDFFF711FF06494FF47A74D5
:105060000880AA213C20FFF77FFF2046FBF7A6FC23
:10507000F7E70000000000204FEA1153A3F580631A
:10508000D3F11E03A8BFD3F1200C08DB4FF0004280
:1050900042EAC12252EA505232FA03F07047094202
:1050A0000BD4102BC4BF0020704703F5787CBCF1F3
:1050B000FF3F05D04FF0FF3070474FF000007047C2
:1050C00070B500F0C3F800BF4992248000207047FB
:1050D000F0E7B0FA80F310FA03F10AD0C3F11D0330
:1050E00003F580634FEA41504FEA035202EBD121AE
:1050F00070474FF000007047DFF848C170B51CEAF8
:10510000111E1EBF1CEA13159EEA0C0F95EA0C0F28
:1051100000F06F8081EA030423EA4C134EEAD47E48
:1051200021EA4C1141F4801143F48013AE44A1FBF9
:10513000024CA0FB0365AEF17F7E361955EB0C05E2
:10514000A1FB034C4CF10003A0FB021C16EB0C0668
:10515000654153F10003094218BF46F0010613F4FC
:10516000007F0BD14FEA03314FEA0530340341EAA7
:10517000155140EA16506FF003020AE04FEAC321CE
:105180004FEAC520F40241EA555140EA56506FF00B
:10519000020202EB2E4201EB025585EACE710AD0E3
:1051A0005FEA440C18BF24F0004450F1000041F1C4
:1051B000000120EAD47040F2FE7C624500D270BD4E
:1051C000A84214BF4FF080444FF04044002E08BF67
:1051D0000024BEF1806FA8BFA1F1C041BDE87040BE
:1051E00080F282804FF0000001F1C04101F00041E7
:1051F00070479EEA0C0F0CEA131518BF95EA0C0FC6
:1052000006D04FF0000081EA030E0EF0004170BDA1
:1052100000F01CF88900013E00F007B800F009B862
:105220004FEA430C5FEA5C5C08D081EA030100F0BE
:105230005BB84FEA410C5FEA5C5CF6D14FF00000CE
:10524000014970470000FF070000F87F0EF1020ED1
:105250002EF0030E5EF8046B364205D4012A43EBB0
:10526000030515F5001F12D8012841EB010C1CF5B0
:10527000001F0CD80ED14FEAD17C15F5001F0CEBA6
:105280004C0C0CF1020C08BF4CEBD37C04E04FF04B
:10529000080C01E04FEAD37C0CEB4C0526FA05F62E
:1052A00006F00706B6F1040C06D20EEB860CBDE83C
:1052B00070404CF0010C6047DFE80CF0090B020273
:1052C0004FF000414FF00000A1F5002170BD1946DC
:1052D0001046012851EB010418BFD4F5001484BF17
:1052E000002001F0004170BD0808A0F500114FEA50
:1052F000310170474FF04070E1EE100A7047000036
:105300000000000000000102030406070809000075
:105310000000010203040000000000000000000083
:105320000000000000003F400000000000000000FE
:105330003000400030004000000009000BC03D007C
:105340000BC03D00090018C024407FE0224031809E
:105350000000180024C01B000D8032400180038033
:105360001C4027401C8007400040100060000000E7
:105370000000000000000000000000001F8020402E
:1053800040200000402020401F8000000000090055
:1053900006001F80060009000000040004003F8092
:1053A0000400040000000010006000000000000085
:1053B00000000400040004000400040000000000D9
:1053C00000400000000000000000002001C00600B6
:1053D0003800400000001F802040204020401F80F7
:1053E0000000000010403FC000400000000018C056
:1053F00021402240244018400000108020402440DA
:1054000024401B80000002000D0011003FC001403D
:1054100000003C80244024402440238000001F8062
:10542000244024403440038000003000200027C086
:105430003800200000001B802440244024401B80B2
:1054400000001C0022C0224022401F8000000000FB
:1054500000000840000000000000000000000460A0
:10546000000000000000000004000A00110020807D
:10547000404009000900090009000900000000007F
:105480004040208011000A00040018002000234042
:105490002400180000001F802040274029401F40A2
:1054A0000000004007C039000F0001C0004020404C
:1054B0003FC0244024401B8000001F80204020402B
:1054C00020403080000020403FC0204020401F800E
:1054D000000020403FC024402E4030C0000020404B
:1054E0003FC024402E00300000000F0010802040FC
:1054F00022403380020020403FC0040004003FC02F
:105500002040204020403FC020402040000000605C
:10551000202020203FC02000200020403FC0244009
:105520000B0030C0204020403FC0204000400040E1
:1055300000C03FC03C0003C03C003FC00000204012
:105540003FC00C4023003FC020001F80204020406F
:1055500020401F80000020403FC02440240018004D
:1055600000001F802140214020E01FA000002040BB
:105570003FC02440260019C0004018C024402440E9
:10558000224031800000300020403FC020403000E9
:10559000000020003F80004000403F8020002000AD
:1055A0003E0001C0070038002000380007C03C0062
:1055B00007C038000000204039C0060039C0204034
:1055C00000002000384007C0384020000000304074
:1055D00021C02640384020C00000000000007FE0CD
:1055E000402040200000000070000C0003800040BC
:1055F00000000000402040207FE00000000000008C
:1056000020004000200000000000001000100010EA
:10561000001000100010000000004000000000001A
:105620000000000002800540054003C0004020004B
:105630003FC0044004400380000000000380044099
:1056400004400640000000000380044024403FC0A6
:1056500000400000038005400540034000000000BA
:1056600004401FC0244024402000000002E00550F8
:1056700005500650042020403FC00440040003C0F1
:1056800000400000044027C000400000000000105F
:105690000010041027E00000000020403FC001403F
:1056A000070004C00440204020403FC000400040AC
:1056B000000007C0040007C0040003C0000004404D
:1056C00007C00440040003C0004000000380044001
:1056D000044003800000041007F0045004400380DD
:1056E0000000000003800440045007F00010044054
:1056F00007C002400400040000000000064005400E
:10570000054004C00000000004001F800440004069
:105710000000040007800040044007C0004004006F
:10572000070004C0018006000400060001C0070055
:1057300001C006000000044006C0010006C004408D
:1057400000000410071004E00180060004000000BF
:10575000044005C0064004400000000000000400B2
:105760007BE040200000000000000000FFF000008F
:105770000000000040207BE004000000000040002A
:1057800080004000200020004000000000000000D9
:105790000000000000000000000000000000000009
:1057A0001FCC000C000000000000000008003000CA
:1057B00060000800300060000000022003FC1E2092
:1057C000022003FC1E200220000000000E1811041D
:1057D0003FFF10840C78000000000F0010840F3889
:1057E00000C0077818840078000000780F8410C487
:1057F00011240E9800E4008400080800680070007E
:105800000000000000000000000000000000000098
:1058100007E01818200440020000000040022004A5
:10582000181807E00000000000000240024001805C
:105830000FF00180024002400000008000800080E4
:105840000FF800800080008000000001000D000EB5
:105850000000000000000000000000000080008048
:10586000008000800080008000800000000C000CA0
:10587000000000000000000000000000000600180A
:1058800000600180060018002000000007F00808F2
:1058900010041004080807F00000000008040804C1
:1058A0001FFC000400040000000000000E0C101497
:1058B0001024104411840E0C000000000C18100479
:1058C0001104110412880C700000000000E0032095
:1058D000042408241FFC0024000000001F981084EA
:1058E00011041104108810700000000007F00888EF
:1058F0001104110418880070000000001C00100042
:1059000010FC13001C001000000000000E381144B1
:105910001084108411440E38000000000700088C29
:1059200010441044088807F0000000000000000048
:10593000030C030C00000000000000000000000148
:10594000010600000000000000000000008001408F
:105950000220041008081004000002200220022087
:10596000022002200220022000000000100408088B
:105970000410022001400080000000000E00120010
:10598000100C106C10800F00000003E00C1813E4E2
:10599000142417C4082807D000000004003C03C4E6
:1059A0001C40074000E4001C000410041FFC11040C
:1059B000110411040E880070000003E00C1810049C
:1059C0001004100410081C10000010041FFC100428
:1059D00010041004080807F0000010041FFC110454
:1059E000110417C410040818000010041FFC11044F
:1059F000110017C010000800000003E00C1810048C
:105A0000100410441C780040000010041FFC108497
:105A10000080008010841FFC10040000100410049B
:105A20001FFC10041004000000000003000110011E
:105A300010011FFE10001000000010041FFC1104D4
:105A400003801464181C1004000010041FFC1004D0
:105A5000000400040004000C000010041FFC1F00E0
:105A600000FC1F001FFC1004000010041FFC0C04AD
:105A7000030000E010181FFC100007F008081004D5
:105A800010041004080807F0000010041FFC108424
:105A90001080108010800F00000007F008181024FC
:105AA0001024101C080A07F2000010041FFC110447
:105AB000110011C011300E0C000400000E1C110466
:105AC0001084108410441C380000180010001004CA
:105AD0001FFC100410001800000010001FF8100434
